:100000000C9434000C9451000C9451000C94510049
:100010000C9451000C9451000C9451000C9451001C
:100020000C9451000C9451000C9451000C9451000C
:100030000C9451000C9451000C9451000C945100FC
:100040000C9451000C9451000C9451000C945100EC
:100050000C9451000C9451000C9451000C945100DC
:100060000C9451000C94510011241FBECFEFD8E026
:10007000DEBFCDBF11E0A0E0B1E0EAE1F1E002C0F7
:1000800005900D92AA30B107D9F721E0AAE0B1E0BE
:1000900001C01D92AB30B207E1F70E9469000C94D9
:1000A0008B000C94000090910A01EDEC9E9FE12DD5
:1000B0001124E695E695E695EE0F8E2F880F880FB2
:1000C000E80F9E1BE92FF0E0E050FF4F808185B9DB
:1000D00008958FE784B98FE385B91F9BFECF2FE783
:1000E00088E391E0215080409040E1F700C000009B
:1000F0001F99FECF2FE788E391E021508040904088
:10010000E1F700C0000080910A018F5F80930A012F
:0A0110000E945300E2CFF894FFCFE5
:0A011A003F065B4F666D7D077F6FA7
:00000001FF
