S00B0000656A342E7372656316
S11300000C9475000C9492000C9492000C94920041
S11300100C9492000C9492000C9492000C94920014
S11300200C9492000C9492000C9492000C94920004
S11300300C9492000C9492000C9492000C949200F4
S11300400C9492000C9492000C9492000C949200E4
S11300500C9492000C9492000C9492000C949200D4
S11300600C9492000C94920007634236B79BD8A775
S11300701A39685618AEBAAB558C1D3CB7CC5763C9
S1130080BD6DEDFD753EF6177231BF000000803F77
S113009008000000BE922449123EABAAAA2ABECD93
S11300A0CCCC4C3E00000080BEABAAAAAA3E000005
S11300B00000BF000000803F0000000000084178FD
S11300C0D3BB4387D1133D190E3CC3BD4282AD2B34
S11300D03E68EC8276BED98FE1A93E4C80EFFFBE2C
S11300E001C4FF7F3F000000000011241FBECFEFBA
S11300F0D8E0DEBFCDBF11E0A0E0B1E0E0E9FBE075
S113010002C005900D92A031B107D9F721E0A0E11A
S1130110B1E001C01D92A532B207E1F70E94C0010F
S11301200C94C6050C9400009B016AE070E00E94E8
S11301308F05FC01EE5FFE4F808185B9F901E45F14
S1130140FE4F808188B90895CF92DF92EF92FF929B
S11301501F93CF93DF93182F809123019091240153
S11301609093220180932101C0E0D0E050C04091DF
S11301702101509122019A01ADECBCEC0E94A3052F
S11301809695879596958795969587959C01220FC8
S1130190331F880F991F880F991F880F991F820F8B
S11301A0931FBE019A01281B390BC9010E949400B8
S11301B08FE097E20197F1F700C00000C330D1054A
S11301C029F1BE016F5F7F4F072E000C880B990B3E
S11301D00E94A4029B01AC0160E070E080E291E423
S11301E00E9430036B017C01609123017091240112
S11301F080E090E00E94A202A70196010E94010201
S11302000E94730270932201609321012196C430ED
S1130210D1050CF4ACCF113049F4809123019091B5
S1130220240101969093240180932301DF91CF91BF
S11302301F91FF90EF90DF90CF900895282F30E02A
S113024002C0359527956A95E2F7C901817099270F
S113025020FF02C081E090E008950F931F93CF9395
S1130260DF93C82FD0E086B164E00E941E01FE0136
S1130270E65EFE4F808386B165E00E941E01FE01AA
S1130280EB5EFE4F808383B167E00E941E01C05F76
S1130290DE4F888380E090E020E030E0C0E0D0E0F2
S11302A000E010E013C0FC01E65EFE4F4081240F25
S11302B0311DFC01EB5EFE4F4081040F111DFC015A
S11302C0E05FFE4F4081C40FD11D0196853091053A
S11302D054F325303105C9F486B164E00E941E014F
S11302E00197D1F380E090E009C0FC01E65EFE4F87
S11302F01082FC01EB5EFE4F108201968530910561
S1130300A4F310920101109200010530110591F43B
S113031006C0FC01EB5EFE4F1082019602C080E035
S113032090E085309105ACF381E090E09093010179
S1130330809300012597F9F483B167E00E941E01C0
S11303400197D1F380E090E005C0FC01EB5EFE4F25
S11303501082019685309105C4F381E090E090937A
S1130360200180931F01909301018093000110925A
S1130370240110922301DF91CF911F910F910895D1
S11303808FE784B98FE087B9E0912301F0912401CC
S1130390EE5FFE4F808185B9C0E01BC081E00E9402
S11303A0A4004091230130912401242FADECBCEC36
S11303B00E94A30596958795969587959C01220F93
S11303C0331F220F331F820F931F481B842F0E9459
S11303D02D018091000190910101892B59F4DECF08
S11303E0C63009F4C0E080E00E94A4008C2F0E9473
S11303F02D01CF5F8091000190910101019781F35C
S1130400E8CF0E9415020C94F6020E94EF0258F005
S11304100E94E80240F029F45F3F29F00C94DF02C7
S113042051110C942A030C94E5020E94070368F30B
S11304309923B1F3552391F3951B550BBB27AA2799
S113044062177307840738F09F5F5F4F220F331FD3
S1130450441FAA1FA9F335D00E2E3AF0E0E832D09B
S113046091505040E695001CCAF72BD0FE2F29D09E
S1130470660F771F881FBB1F261737074807AB0770
S1130480B0E809F0BB0B802DBF01FF2793585F4FE5
S11304903AF09E3F510578F00C94DF020C942A0345
S11304A05F3FE4F3983ED4F3869577956795B795C7
S11304B0F7959F5FC9F7880F911D9695879597F9D2
S11304C00895E1E0660F771F881FBB1F621773074B
S11304D08407BA0720F0621B730B840BBA0BEE1F60
S11304E088F7E09508950E940F0388F09F5798F0CD
S11304F0B92F9927B751B0F0E1F0660F771F881F25
S1130500991F1AF0BA95C9F714C0B13091F00E943E
S11305102903B1E008950C942903672F782F8827C5
S1130520B85F39F0B93FCCF3869577956795B39565
S1130530D9F73EF490958095709561957F4F8F4FD4
S11305409F4F0895E89409C097FB3EF490958095D9
S1130550709561957F4F8F4F9F4F9923A9F0F92F85
S113056096E9BB279395F695879577956795B79503
S1130570F111F8CFFAF4BB0F11F460FF1BC06F5FE9
S11305807F4F8F4F9F4F16C0882311F096E911C0FB
S1130590772321F09EE8872F762F05C0662371F01C
S11305A096E8862F70E060E02AF09A95660F771F30
S11305B0881FDAF7880F9695879597F9089597F924
S11305C09F6780E870E060E008959FEF80EC0895F5
S11305D000240A941616170618060906089500241E
S11305E00A9412161306140605060895092E039498
S11305F0000C11F4882352F0BB0F40F4BF2B11F40C
S113060060FF04C06F5F7F4F8F4F9F4F089557FD6A
S11306109058440F551F59F05F3F71F04795880F6C
S113062097FB991F61F09F3F79F087950895121603
S113063013061406551FF2CF4695F1DF08C01616AF
S113064017061806991FF1CF869571056105089460
S11306500895E894BB2766277727CB0197F9089577
S1130660FA01EE0FFF1F309621053105A1F1611546
S1130670710561F48038BFE39B0749F168949038B1
S1130680810561F08038BFEF9B0741F099234AF55B
S1130690FF3FE1053105210519F1E8940894E79538
S11306A0D901AA2329F4AB2FBE2FF85FD0F310C0D1
S11306B0FF5F70F4A695E0F7F73950F019F0FF3AB0
S11306C038F49F779F930DD00F9007FC90580895AE
S11306D046F00C94E50260E070E080E89FE3089542
S11306E04FE79F775F934F933F932F930E942B0481
S11306F02F913F914F915F910E94A7040C9488031E
S113070029F416F00C94DF020C9429030C94E502EE
S11307100E940F03A8F39638A0F707F80F92E89405
S11307202BE33AEA48EB5FE70E94BD040F920F9275
S11307300F924DB75EB70F920E947304E8E6F0E0A3
S11307400E94BA034F915F91EF91FF91E595EE1FDF
S1130750FF1F49F0FE57E0684427EE0F441FFA9547
S1130760E1F74195550B0E94ED030F9007FE0C94A1
S1130770E1030895DF93CF931F930F93FF92EF92BA
S1130780DF927B018C01689406C0DA2EEF010E948F
S1130790BA04FE01E894A5912591359145915591AE
S11307A0A6F3EF010E942C05FE019701A801DA943B
S11307B069F7DF90EF90FF900F911F91CF91DF9138
S11307C008959B01AC0160E070E080E89FE30C9425
S11307D001020C94DF020C9481050E940F03D8F3EC
S11307E09923C9F3940F511DA3F39150504094F0F1
S11307F059F0882332F0660F771F881F91505040BC
S1130800C1F79E3F51052CF7880F911D969587954A
S113081097F908955F3FACF0983E9CF0BB2786950E
S113082077956795B79508F4B1609395C1F7BB0FB9
S113083058F711F460FFE8CF6F5F7F4F8F4F9F4FE2
S1130840E3CF0C942A0316F00C9481050C94E50272
S113085068940C94DF020E940F03A8F39923C1F358
S1130860AEF3DF93CF931F930F93FF92C92FDD272E
S113087088232AF02197660F771F881FDAF720E074
S113088030E040E85FEB9FE3883920F0803E38F0A9
S113089021968F770E941505E0E9F0E004C00E94DC
S11308A01505EDEBF0E00E94BA038B01BE01EC01EB
S11308B0FB2E6F5771097595771F880B990B0E9452
S11308C0A40228E132E741E35FE30E94BA04AF2DBA
S11308D09801AE01FF900F911F91CF91DF910E947B
S11308E02C050C94F602FA01DC01AA0FBB1F9B0134
S11308F0AC01BF5728F4222733274427507820C05F
S1130900B75190F4AB2F0024469537952795011CD9
S1130910A395D2F3002071F0220F331F441FB39527
S1130920DAF30ED00C94140561307105A0E88A073F
S1130930B94630F49B01AC01662777278827907865
S1130940309621F0208331834283538308950E949B
S1130950BA040C94F6020E94E80238F00E94EF02F6
S113096020F0952311F00C94DF020C94E50211247D
S11309700C942A030E94070370F3959FC1F3950F0B
S113098050E0551F629FF001729FBB27F00DB11D0F
S1130990639FAA27F00DB11DAA1F649F6627B00D9F
S11309A0A11D661F829F2227B00DA11D621F739F88
S11309B0B00DA11D621F839FA00D611D221F749F96
S11309C03327A00D611D231F849F600D211D822FDD
S11309D0762F6A2F11249F5750409AF0F1F0882304
S11309E04AF0EE0FFF1FBB1F661F771F881F915031
S11309F05040A9F79E3F510580F00C94DF020C94FF
S1130A002A035F3FE4F3983ED4F386957795679580
S1130A10B795F795E7959F5FC1F7FE2B880F911D5A
S1130A209695879597F908955058BB27AA270E9451
S1130A302C050C94F6020E94E80238F00E94EF02A2
S1130A4020F039F49F3F19F426F40C94E5020EF4D7
S1130A50E095E7FB0C94DF02E92F0E94070358F3AB
S1130A60BA17620773078407950720F079F4A6F58F
S1130A700C9429030EF4E0950B2EBA2FA02D0B0134
S1130A80B90190010C01CA01A0011124FF27591BCF
S1130A9099F0593F50F4503E68F11A16F040A22FD5
S1130AA0232F342F4427585FF3CF46953795279546
S1130AB0A795F0405395C9F77EF41F16BA0B620B45
S1130AC0730B840BBAF09150A1F0FF0FBB1F661F8C
S1130AD0771F881FC2F70EC0BA0F621F731F841FCF
S1130AE048F4879577956795B795F7959E3F08F0F5
S1130AF0B0CF9395880F08F09927EE0F97958795B7
S1130B0008959F3F31F0915020F48795779567952C
S1130B10B795880F911D9695879597F9089597FB3A
S1130B20072E16F4009407D077FD09D00E94B20571
S1130B3007FC05D03EF4909581959F4F08957095DC
S1130B4061957F4F0895A29FB001B39FC001A39FF9
S1130B50700D811D1124911DB29F700D811D1124F2
S1130B60911D0895AA1BBB1B51E107C0AA1FBB1FFF
S1130B70A617B70710F0A61BB70B881F991F5A9525
S1130B80A9F780959095BC01CD010895F894FFCF05
S1130B9001003F065B4F666D7D077F6F080402010D
S9030000FC
