S00B0000656A332E7372656317
S11300000C9434000C9451000C9451000C94510045
S11300100C9451000C9451000C9451000C94510018
S11300200C9451000C9451000C9451000C94510008
S11300300C9451000C9451000C9451000C945100F8
S11300400C9451000C9451000C9451000C945100E8
S11300500C9451000C9451000C9451000C945100D8
S11300600C9451000C94510011241FBECFEFD8E022
S1130070DEBFCDBF11E0A0E0B1E0E0E0F2E002C0FD
S113008005900D92AA30B107D9F721E0AAE0B1E0BA
S113009001C01D92AE30B207E1F70E9453000C94E8
S11300A0FE000C9400008FEF84B98FE087B9E091D3
S11300B00C01F0910D01E050FF4F808185B98091D2
S11300C00C0190910D012AE030E0B9010E94D600A4
S11300D0FC01E050FF4F808185B988E086B98FE943
S11300E09FE00197F1F700C0000080910C0190910E
S11300F00D01B9010E94D600CB0170930B016093EE
S11301000A01B9010E94D600FC01E050FF4F808132
S113011085B984E088B98FE99FE00197F1F700C0C1
S1130120000080910C0190910D0164E670E00E9442
S1130130D600CB0170930B0160930A01B9010E94B0
S1130140D600FC01E050FF4F808185B982E088B978
S11301508FE99FE00197F1F700C0000080910C0146
S113016090910D0168EE73E00E94D600CB0170936C
S11301700B0160930A01B9010E94D600FC01E05012
S1130180FF4F808185B981E088B98FE99FE00197AD
S1130190F1F700C0000080910C0190910D010196CF
S11301A090930D0180930C0118B889CF97FB072E0B
S11301B016F4009407D077FD09D00E94EA0007FCEA
S11301C005D03EF4909581959F4F08957095619563
S11301D07F4F0895AA1BBB1B51E107C0AA1FBB1F79
S11301E0A617B70710F0A61BB70B881F991F5A95BF
S11301F0A9F780959095BC01CD010895F894FFCF9F
S10D02003F065B4F666D7D077F6FBC
S9030000FC
